:100000000C94432E0C94742E0C94742E0C94742E19
:100010000C94742E0C94742E0C94742E0C94742ED8
:100020000C94742E0C94742E0C94742E0C94742EC8
:100030000C94742E0D940F1B0C94742E0C94742E2F
:100040000C94742E0C94A7610C94742E0C94742E42
:100050000C94742E0C94742E0C943B540D941F1E0F
:100060000C94742E0D94E8060C94742E0C94742E3B
:100070000C94742E0C94742E0C94742E0C94742E78
:100080000C94742E0C94742E0C94742E0C94742E68
:100090000C94742E0C94742E0C94742E0C94742E58
:1000A0000C94742E0C94742E0C94742E0C94742E48
:1000B0000C94742E0C94742E0C94742E0C94742E38
:1000C0000C94742E0C94742E0C94742E0C94742E28
:1000D0000C94742E0C94742E0C94742E0C94742E18
:1000E0000C94742E084AD73B3BCE016E84BCBFFDF6
:1000F000C12F3D6C74319ABD56833DDA3D00C77FF8
:1001000011BED9E4BB4C3E916BAAAABE0000008090
:100110003F05A84CCDB2D44EB93836A9020C50B91F
:10012000918688083CA6AAAA2ABE000000803F004B
:100130000D94DA250D9401080D94EC070D946F07CA
:100140000D940B080D9415080D94141A0D94A10725
:100150000D94FE190D9427080D942C080D94110888
:100160000D9477070D9419080D941A280D947307B0
:100170000D9464070D948D330D9471280D94171A06
:100180000D94081A0D9423070D94FE070D94F6079D
:100190000D940B1A0D9497080D9423080D949A3121
:1001A0000D94211A0D9431260D94111A0D941C1AD8
:1001B0000D948D270D94A0290D949E070D94F207A0
:1001C0000D9407080D9436270D942D080D9488265C
:1001D0000D9431080D941F080D94A0070D946F33F2
:1001E0000D945C070D941E1A0D9481070D94DF2663
:1001F0000D947B070D940E1A0D944E070D946B070A
:100200000D94FA070D94C3274E414E494E49545957
:10021000494E46CDCCCC3D0AD7233C17B7D13877D1
:10022000CC2B329595E6241FB14F0A0000204100E7
:1002300000C84200401C4620BCBE4CCA1B0E5AAE31
:10024000C59D7470012C0190012701B0012201C0ED
:10025000011D01F00118011002130130020E0160AE
:1002600002090190020401C002FF000003FA0040ED
:1002700003F5008003F000D003EB002004E60070DB
:1002800004E100E004DC004005D700C005D20040D6
:1002900006CD00D006C8008007C3003008BE00F0BD
:1002A00008B900C009B400B00AAF00B00BAA00D072
:1002B0000CA500000EA000500F9B00C0109600502F
:1002C00012910000148C00C0158700B0178200B096
:1002D000197D00D01B7800001E730040206E009036
:1002E000226900F024640040275F0090295A00E052
:1002F0002B5500102E500020304B0010324600E0ED
:1003000033410090353C001037370070383200A080
:10031000392D00B03A2800A03B2300603C1E00109D
:100320003D1900903D1400103E0F00703E0A00C0C1
:100330003E0500003F0000403FFBFF803FF6FFC04E
:100340003FF1FF454550524F4D2064617461736920
:100350007A65206572726F722E0A00290A00206287
:10036000797465733B20637263200053657474690C
:100370006E67732053746F726564202800290A0029
:100380002062797465733B2063726320002073746C
:100390006F7265642073657474696E67732072652B
:1003A00074726965766564202800202863616C6337
:1003B000756C6174656429210A0020213D20004587
:1003C0004550524F4D20435243206D69736D617407
:1003D0006368202D202873746F72656429200020C3
:1003E00053697A653A2000496E6465783A200020A6
:1003F0004D61726C696E3D563536290A00284545B7
:1004000050524F4D3D00454550524F4D207665723C
:1004100073696F6E206D69736D6174636820004845
:10042000617264636F6465642044656661756C74B1
:100430002053657474696E6773204C6F61646564E2
:100440000A00F4010000F4010000F4010000881328
:1004500000000000FA430000FA4300004843000097
:1004600048420000A0420000A0420000C843000033
:10047000BE4220286D6D290020204D3630332000EB
:100480002055004C0046696C616D656E74206C6F80
:1004900061642F756E6C6F6164206C656E67746843
:1004A000733A0A0020440020490020204D333031A7
:1004B0002050005049442073657474696E67733A24
:1004C0000A0020460020420020480020204D313400
:1004D000352053004D6174657269616C20686561F7
:1004E00074757020706172616D65746572733A0A1B
:1004F00000205A0020590020204D3230362058006C
:10050000486F6D65206F66667365743A0A00204512
:1005100000205A0020590020580020540020530089
:1005200020204D32303520510020453C6D61785FF0
:10053000655F6A65726B3E0020583C6D61785F783C
:100540005F6A65726B3E20593C6D61785F795F6AC6
:1005500065726B3E205A3C6D61785F7A5F6A6572A6
:100560006B3E00416476616E6365643A20513C6D78
:10057000696E5F7365676D656E745F74696D655FE5
:1005800075733E20533C6D696E5F6665656472618C
:1005900074653E20543C6D696E5F74726176656C63
:1005A0005F66656564726174653E00205400205288
:1005B0000020204D323034205000416363656C656B
:1005C000726174696F6E2028756E6974732F73324F
:1005D000293A20503C7072696E745F616363656C88
:1005E0003E20523C726574726163745F616363653F
:1005F0006C3E20543C74726176656C5F6163636528
:100600006C3E0A00204500205A0020590020204D51
:100610003230312058004D6178696D756D2041632D
:1006200063656C65726174696F6E2028756E69749C
:10063000732F7332293A0A00204500205A002059AE
:100640000020204D3230332058004D6178696D759F
:100650006D206665656472617465732028756E69C6
:1006600074732F73293A0A00204500205A0020593C
:100670000020204D3932205800537465707320706B
:10068000657220756E69743A0A0020204D31343944
:100690002043203B20556E69747320696E204365AA
:1006A0006C736975730A00202047323120202020A6
:1006B0003B00486F6D696E67206661696C65640018
:1006C000545249474745524544006F70656E003AA1
:1006D000200066696C616D656E74007A5F6D696E8D
:1006E00000795F6D696E00785F6D696E00526570AC
:1006F0006F7274696E6720656E6473746F702073B7
:1007000074617475730A0024F4D43050C38E20C20F
:10071000A24017828B7011127A910D816CD90AA8B0
:1007200061E108C7586607615143061E4B5D05C16C
:1007300045A7041A411104093D980371393103405A
:1007400036DB0265339102D4305402802E1D0263E1
:100750002CEE01752AC501B028A001102781018F58
:100760002564012B244B01E0223401AC211F018DB3
:10077000200D01801FFC00841EED00971DDF00B8D6
:100780001CD200E61BC600201BBC00641AB200B2DB
:1007900019A8000A19A0006A189900D11791004001
:1007A000178B00B516840031167E00B31579003A18
:1007B000157300C7146F0058146A00EE13660088A2
:1007C00013630025135E00C7125B006C12570015FF
:1007D000125400C111510070114F0021114B00D66D
:1007E0001049008D1047004610440002104200C01E
:1007F0000F4000800F3E00420F3C00060F3B00CB35
:100800000E3800930E37005C0E3500270E3400F3CF
:100810000D3200C10D3100900D3000600D2E003200
:100820000D2D00050D2C00D90C2B00AE0C290085D8
:100830000C29005C0C2700350C27000E0C2600E864
:100840000B2400C40B2400A00B23007D0B23005AB3
:100850000B2100390B2100180B2000F80A1F00D9CA
:100860000A1E00BB0A1E009D0A1D00800A1D0063AF
:100870000A1C00470A1B002C0A1B00110A1A00F769
:10088000091A00DD091900C4091900AB0919009201
:100890000917007B091800630917004C0916003678
:1008A000091600200916000A091500F5081500E0D0
:1008B000081400CC081400B8081400A40814009010
:1008C0000813007D0812006B081300580812004638
:1008D0000812003408110023081100120811000149
:1008E000081100F0071000E0071000D0071000C04A
:1008F000071000B0070F00A107100091070E00833A
:10090000070F0074070F0065070E0057070E004918
:10091000070E003B070D002E070E0020070D0013E9
:10092000070D0006070D00F9060C00ED060D00E0AE
:10093000060C00D4060C00C8060C00BC060C00B067
:10094000060C00A4060B0099060C008D060B008215
:10095000060B0077060B006C060B0061060A0057B9
:10096000060B004C060A0042060A0038060A002E52
:10097000060A0024060A001A060A001006090007E3
:10098000060A00FD050900F4050900EB050900E26F
:10099000050900D9050900D0050900C7050900BEF1
:1009A000050900B5050800AD050800A50509009C6E
:1009B000050800940508008C050800840508007CE3
:1009C000050800740508006C050700650508005D52
:1009D000050700560508004E0507004705070040BB
:1009E00005080038050700310507002A0507002320
:1009F0000507001C050600160507000F050700087F
:100A000005060002050700FB040600F5040700EEDA
:100A1000040600E8040600E2040700DB040600D533
:100A2000040600CF040600C9040600C3040600BD86
:100A3000040600B7040600B1040500AC040600A6D5
:100A4000040600A00405009B040600950405009020
:100A50000406008A04050085040500800406007A67
:100A600004050075040500700405006B04050066AC
:100A7000040500610405005C0405005704050052EC
:100A80000405004D04050048040500430405003E2C
:100A90000404003A04050035040500300404002C69
:100AA00004050027040400230405001E0404001AA2
:100AB00004040016040500110404000D04040009D8
:100AC0000405000404040000040400FC030400F80E
:100AD000030400F4030400F0030400EC030400E842
:100AE000030400E4030400E0030400DC030400D872
:100AF000030400D4030400D0030400CC030400C8A2
:100B0000030300C503030024F404D9201BC40C5CB8
:100B10000E9804C4095F0265077101F405F900FB32
:100B200004B30048048700C103690058035500035B
:100B3000034500BE023A008402310053022A002914
:100B400002250004022000E4011C00C8011900AFC6
:100B50000117009801140084011300710110006155
:100B600001100051010E0043010D0036010B002B56
:100B7000010B0020010B00150109000C0109000305
:100B8000010800FB000800F3000800EB000700E488
:100B9000000600DE000600D8000600D2000600CCE9
:100BA000000500C7000500C2000500BD000400B933
:100BB000000400B5000400B1000400AD000400A969
:100BC000000400A5000300A20003009F0004009B96
:100BD00000030098000300950002009300030090BA
:100BE0000003008D0002008B0003008800020086D5
:100BF00000020084000300810002007F0002007DEB
:100C00000002007B000200790002007700010076FC
:100C10000002007400020072000100710002006F07
:100C20000002006D0001006C0002006A0001006912
:100C30000002006700010066000100650001006419
:100C40000002006200010061000100600001005F1D
:100C50000002005D0001005C0001005B0001005A21
:100C60000001005900010058000100570001005622
:100C70000001005500010054000100530000005322
:100C80000001005200010051000100500001004F1E
:100C90000001004E0000004E0001004D0001004C1C
:100CA0000001004B0000004B0001004A0001004918
:100CB0000001004800000048000100470001004614
:100CC000000000460001004500000045000100440E
:100CD0000001004300000043000100420000004208
:100CE0000001004100000041000100400001003F00
:100CF0000000003F0001003E0000003E0001003DFA
:100D00000000003D0001003C0000003C0000003CF1
:100D10000001003B0000003B0001003A0000003AE7
:100D200000010039000000390001003800000038DF
:100D300000000038000100370000003700010036D5
:100D400000000036000000360001003500000035CC
:100D500000000035000100340000003400000034C1
:100D600000010033000000330000003300010032B6
:100D700000000032000000320001003100000031AC
:100D800000000031000100300000003000000030A1
:100D90000001002F0000002F0000002F0000002F96
:100DA0000001002E0000002E0000002E0001002D8A
:100DB0000000002D0000002D0000002D0001002C7F
:100DC0000000002C0000002C0000002C0001002B73
:100DD0000000002B0000002B0000002B0001002A67
:100DE0000000002A0000002A0000002A000100295B
:100DF000000000290000002900000029000000294F
:100E00000001002800000028000000280000002841
:100E10000000002800010027000000270000002734
:100E20000000002700000027000100260000002627
:100E3000000000260000002600000026000100251A
:100E4000000000250000002500000025000000250E
:100E50000000002500010024000000240000002400
:100E600000000024000000240001002300000023F3
:100E700000000023000000230000002300000023E6
:100E800000000023000100220000002200000022D8
:100E900000000022000000220000002200010021CA
:100EA00000000021000000210000002100000021BE
:100EB00000000021000000210001002000000020AF
:100EC00000000020000000200000002000000020A2
:100ED00000000020000000200001001F0000001F93
:100EE0000000001F0000001F0000001F0000001F86
:100EF0000000001F0001001E0000001E0000001E78
:100F00000000001E000000043700001E29000051F0
:100F10001B00005810000010090000CC04000078ED
:100F2000020000410100006265640A002C20737910
:100F30007374656D2073746F7070656421204865EB
:100F4000617465725F49443A2000426564206865B7
:100F50006174696E67206661696C656400486561EB
:100F600074696E67206661696C656400453120486C
:100F7000656174696E67206661696C6564004865C7
:100F80006174696E67206661696C6564004B494CE9
:100F90004C45442E20001000C90210012C014001D4
:100FA000220170011801B0010E01F001040150028C
:100FB000FA00B002F0003003E600D003DC00900439
:100FC000D2007005C800A006BE000008B400B00939
:100FD000AA00D00BA000600E960060118C000015D6
:100FE000820020197800C01D6E00A0226400B02786
:100FF0005A00902C500000314600E0343C0010387C
:101000003200903A2800603C1E00A03D1400803E53
:101010000A00203F0000453120544845524D414CC4
:101020002052554E415741590042454420544845AD
:10103000524D414C2052554E41574159005468651C
:10104000726D616C2052756E617761790045312057
:101050004572723A204D415854454D5000457272C8
:101060003A204D415854454D5020424544004D4191
:101070005854454D50207472696767657265640005
:101080004531204572723A204D494E54454D50002D
:101090004572723A204D494E54454D5020424544C8
:1010A000004D494E54454D50207472696767657212
:1010B0006564004D383420582059204500202F0009
:1010C0002042403A0020403A0025753A25303275DA
:1010D00000253032753A253032750025756420259B
:1010E0003032753A25303275005A005900580009DF
:1010F00020000000000000000000000000003FFF92
:10110000F000000000000000000000000038007047
:1011100000000000000000000000000030FC300073
:10112000000000000000000000000020FC10000093
:101130000000000000000000000020781000000007
:10114000000000000000000000203010000000003F
:1011500000000000000000002C00D03FC000000094
:10116000000000002082002E31D07FE0000000004F
:101170000000001041002F7BD07FE0000000000045
:1011800000001041002F7BD07FE000000000000035
:10119000002082002E31D03FC0000000000000007F
:1011A0004104002C00D03FC000000000000000827D
:1011B00008002030107FE0000000000000008208DE
:1011C000002078107FE000000000000000410400D3
:1011D00020FC107FE00000000000000020820030B2
:1011E000FC301F80000000000000000000003800FC
:1011F000700F0000000000000000FFFFC03FFFF084
:10120000060000000000000000FFFFC0000000001A
:1012100000000000000000000000003FFFF00000A0
:101220000000000000000000000038007000000016
:1012300000000000000000000031863000000000C7
:1012400000000000000000002387100000000000E4
:101250000000000000000027879000000000000050
:101260000000000000002F87D000000000000000F8
:1012700000000000002F03D03FC00000000000006D
:10128000002082002030107FE000000000000000FD
:101290001041002078107FE00000000000000010E6
:1012A00041002078107FE000000000000000208254
:1012B000002030103FC0000000000000004104008A
:1012C0002F03D03FC0000000000000008208002F64
:1012D00087D07FE000000000000000820800278720
:1012E000907FE00000000000000041040023871010
:1012F0007FE0000000000000002082003186301FE7
:1013000080000000000000000000003800700F00A6
:1013100000000000000000FFFFC03FFFF0060000DB
:10132000000000000000FFFFC000000033445041F7
:1013300056202D204E4F4E2D48554D414E205445A0
:101340005354494E47204F4E4C59005072696E74A9
:10135000696E672E2E2E005072696E742070617552
:101360007365640056656E74696C61746F720049D0
:101370006E666F2073637265656E00426162797399
:10138000746570205A004D3138004E6F00596573F6
:1013900000436F6E6669726D3A2053746F70205609
:1013A000656E742E3F004E6F005965730053746F65
:1013B000702056656E74696C6174696F6E3F004D84
:1013C00035353520463630333320503630333320F0
:1013D0005A313720593531004D35353520463439AD
:1013E0003738205034393738205A31352059343580
:1013F000004D3535352046343535332050343535BC
:1014000033205A313420593432004D353535204699
:1014100033353337205033353337205A31312E3579
:10142000205933342E35004D353535204632393884
:1014300030205032393830205A3130205933300082
:101440004D35353520463530383620503530383634
:10145000205A313820593534004D35353520463441
:10146000373138205034373138205A313720593508
:1014700031004D353535204634303330205034304E
:101480003330205A313520593435004D353535202B
:101490004633373231205033373231205A313420FD
:1014A000593432004D3535352046323933302050ED
:1014B00032393330205A31312E35205933342E35DC
:1014C000004D3535352046323531342050323531F6
:1014D00034205A313020593330004D3535352046CF
:1014E00034353038205034353038205A31392E35A3
:1014F000205935382E35004D3535352046343036B7
:1015000039205034303639205A313820593534009A
:101510004D35353520463338323620503338323663
:10152000205A313720593531004D35353520463375
:10153000323936205033323936205A313520593439
:1015400035004D3535352046333035302050333079
:101550003530205A313420593432004D353535205C
:101560004632343438205032343438205A31312E17
:1015700035205933342E35004D353535204632313E
:101580003037205032313037205A31302059333003
:10159000004D35353520463433343620503433341D
:1015A00036205A323320593639004D3535352046EC
:1015B00034303038205034303038205A32312E35E3
:1015C000205936342E35004D3535352046333538E3
:1015D00039205033353839205A31392E3520593594
:1015E000382E35004D3535352046333237372050CB
:1015F00033323737205A313820593534004D35359C
:1016000035204633303832205033303832205A318A
:101610003720593531004D35353520463236393091
:10162000205032363930205A313520593435004D6A
:10163000353535204632343836205032343836206D
:101640005A313420593432004D3535352046323048
:101650003138205032303138205A31312E3520592E
:1016600033342E35004D3535352046313733372E5E
:1016700035205031373338205A313020593330003B
:101680004D3535352046343131302050343131300C
:10169000205A32372E35205938322E35004D353507
:1016A00035204633393030205033393030205A32EB
:1016B0003620593738004D353535204633363330EE
:1016C000205033363330205A32342E3520593733B8
:1016D0002E35004D353535204633343030205033EB
:1016E000343030205A323320593639004D353535B3
:1016F000204633313630205033313630205A3231A3
:101700002E35205936342E35004D353535204632AC
:10171000383333205032383333205A31392E352084
:101720005935382E35004D35353520463235393668
:10173000205032353936205A313820593534004D51
:101740003535352046323434342050323434342068
:101750005A313720593531004D3535352046323133
:101760003434205032313434205A31352059343514
:10177000004D35353520463139393320503139392E
:1017800033205A313420593432004D353535204616
:1017900031363233205031363233205A31312E3502
:1017A000205933342E35004D35353520463134300F
:1017B00036205031343036205A3130205933300001
:1017C0004D353535204633383138205033383138AF
:1017D000205A333320593939004D353535204633B9
:1017E000353630205033353630205A333120593990
:1017F00033004D35353520463333373520503333BC
:101800003735205A32392E35205938382E35004D8B
:10181000353535204633313235205033313235209D
:101820005A32372E35205938322E35004D35353560
:10183000204632393330205032393330205A323654
:1018400020593738004D353535204632373635206A
:101850005032373635205A32342E35205937332E10
:1018600035004D353535204632353830205032354B
:101870003830205A323320593639004D353535202D
:101880004632343132205032343132205A32312E05
:1018900035205936342E35004D3535352046323118
:1018A0003738205032313738205A31392E352059C7
:1018B00035382E35004D353535204632303035201F
:1018C0005032303035205A313820593534004D35BA
:1018D0003535204631383838205031383838205A9C
:1018E000313720593531004D3535352046313635C3
:1018F00039205031363539205A31352059343500A8
:101900004D3535352046313534322050313534327D
:10191000205A313420593432004D35353520463186
:10192000323630205031323630205A31312E352087
:101930005933342E35004D35353520463130393266
:10194000205031303932205A313020593330004D57
:101950003535352046333031332E35205033303154
:1019600033205A33362E3520593130392E35004D3B
:101970003535352046323830302E3220503238302E
:1019800030205A33342059313032004D353535202E
:1019900046323731362E36205032373137205A33DF
:1019A0003320593939004D353535204632353435F7
:1019B000205032353435205A333120593933004DD7
:1019C00035353520463234313920503234313920E2
:1019D0005A32392E35205938382E35004D353535A7
:1019E000204632323439205032323439205A32379C
:1019F0002E35205938322E35004D353535204632BA
:101A0000313234205032313234205A323620593774
:101A100038004D3535352046313939372050313988
:101A20003937205A32342E35205937332E35004D70
:101A30003535352046313836382050313836382063
:101A40005A323320593639004D3535352046313735
:101A50003432205031373432205A32312E35205929
:101A600036342E35004D3535352046313537382062
:101A70005031353738205A31392E35205935382EE6
:101A800035004D353535204631343535205031342B
:101A90003535205A313820593534004D353535200B
:101AA0004631333732205031333732205A313720E4
:101AB000593531004D3535352046313230372050DB
:101AC00031323037205A313520593435004D3535D3
:101AD00035204631313237205031313237205A31BA
:101AE0003420593432004D353535204639323120D5
:101AF00050393231205A31312E35205933342E3578
:101B0000004D35353520463739392E35205038309F
:101B100030205A313020593330004D35353520468C
:101B200031393335205031393335205A33362E355B
:101B300020593130392E35004D3535352046313775
:101B40003939205031373939205A3334205931301E
:101B500032004D3535352046313734342050313759
:101B60003434205A333320593939004D3535352036
:101B70004631363430205031363430205A3331201B
:101B8000593933004D3535352046313535372050FC
:101B900031353537205A32392E35205938382E35DF
:101BA000004D35353520463134353220503134350D
:101BB00032205A32372E35205938322E35004D35E5
:101BC0003535204631333730205031333730205AC5
:101BD000323620593738004D3535352046313239C7
:101BE00032205031323932205A32342E3520593792
:101BF000332E35004D3535352046313231322050C7
:101C000031323132205A323320593639004D353590
:101C100035204631313330205031313330205A3283
:101C2000312E35205936342E35004D353535204688
:101C300031303236205031303236205A31392E355B
:101C4000205935382E35004D353535204639343458
:101C50002050393434205A313820593534004D352C
:101C6000353520463839312050383931205A31370E
:101C700020593531004D353535204637383520501F
:101C8000373835205A313520593435004D35353502
:101C900020463733332050373333205A31342059DC
:101CA0003432004D3535352046363031205036300F
:101CB00031205A31312E35205933342E35004D35EF
:101CC000353520463532322050353232205A3130C7
:101CD00020593330004D35353520463934302E35D6
:101CE00020503934302E35205A33362E3520593194
:101CF00030392E35004D35353520463837362050B1
:101D0000383736205A33342059313032004D35358A
:101D10003520463835302050383530205A3333207E
:101D2000593939004D353535204637393820503747
:101D30003938205A333120593933004D3535352063
:101D4000463735392E3520503735392E35205A3221
:101D5000392E35205938382E35004D353535204649
:101D60003730372E3520503730372E35205A32371E
:101D70002E35205938322E35004D35353520463632
:101D800036382E3520503636382E35205A32362009
:101D9000593738004D3535352046363330205036EA
:101DA0003330205A32342E35205937332E35004DFA
:101DB00035353520463539312E3520503539312EDF
:101DC00035205A323320593639004D3535352046C5
:101DD0003535332050353533205A32312E352059A0
:101DE00036342E35004D35353520463530312050CE
:101DF000353031205A31392E35205935382E3500BD
:101E00004D35353520463436332050343633205A5C
:101E1000313820593534004D353535204634333787
:101E20002050343337205A313720593531004D3561
:101E3000353520463338352050333835205A313542
:101E400020593435004D3535352046333630205055
:101E5000333630205A313420593432004D3535353F
:101E600020463239352050323935205A31312E351D
:101E7000205933342E35004D35353520463235372F
:101E80002050323537205A313020593330004D350B
:101E900035352046353438342E35205031373337F8
:101EA000205A313020593330004D353535204638F1
:101EB000313530205032323730205A3135205934C4
:101EC00035004D35353520463636363120503231E5
:101ED0003137205A313420593432004D35353520D0
:101EE0004634373535205031373138205A31312E8C
:101EF00035205933342E35004D35353520463339AC
:101F00003037205031343831205A31302059333075
:101F1000004D353535204639393530205032373689
:101F200035205A32312E35205936342E35004D3574
:101F30003535204637373430205032343935205A41
:101F400031392E35205935382E35004D353535206F
:101F500046363635312E35205032323932205A311C
:101F60003820593534004D35353520463630333339
:101F7000205032313632205A313720593531004D18
:101F80003535352046343937382050313839362008
:101F90005A313520593435004D35353520463435E4
:101FA0003533205031373630205A313420593432CD
:101FB000004D3535352046333533372050313433F5
:101FC00039205A31312E35205933342E35004D35D4
:101FD0003535204632393830205031323433205AAA
:101FE000313020593330004D3535352046383239BF
:101FF00035205032383935205A32372E352059386D
:10200000322E35004D3535352046373630302050AC
:1020100032373331205A323620593738004D353572
:1020200035204636393530205032353633205A3255
:10203000342E35205937332E35004D353535204671
:1020400036333030205032343035205A3233205934
:102050003639004D3535352046353735302050324C
:10206000323337205A32312E35205936342E35004E
:102070004D3535352046353035302050323032350B
:10208000205A31392E35205935382E35004D353509
:1020900035204634353533205031383630205A31EA
:1020A0003820593534004D353535204634323532F7
:1020B000205031373535205A313720593531004DD0
:1020C0003535352046333634342E352050313534CD
:1020D00030205A313520593435004D3535352046BC
:1020E00033333636205031343337205A3134205987
:1020F0003432004D353535204632363931205031B5
:10210000313737205A31312E35205933342E3500AE
:102110004D35353520463232393620503130313860
:10212000205A313020593330004D35353520463670
:10213000373430205032373137205A333320593931
:1021400039004D3535352046363231312050323563
:102150003435205A333120593933004D3535352047
:102160004635383434205032343139205A32392E01
:1021700035205938382E35004D3535352046353324
:102180003934205032323436205A32372E352059E5
:1021900038322E35004D353535204635303030203B
:1021A0005032313234205A323620593738004D35CA
:1021B00035352046343637372E35205031393937CA
:1021C000205A32342E35205937332E35004D3535CF
:1021D00035204634333436205031383638205A32A0
:1021E0003320593639004D353535204634303038B6
:1021F000205031373434205A32312E35205936347C
:102200002E35004D3535352046333538392050319F
:10221000353737205A31392E35205935382E35008B
:102220004D3535352046333237372050313435354A
:10223000205A313820593534004D35353520463354
:10224000303832205031333732205A313720593527
:1022500031004D3535352046323639302050313257
:102260003037205A313520593435004D3535352039
:102270004632343836205031313237205A3134200A
:10228000593432004D353535204632303138205002
:10229000393231205A31312E35205933342E350020
:1022A0004D3535352046313733372E3520503739C7
:1022B00039205A313020593330004D3535352046DC
:1022C00034393037205032313937205A33362E35B1
:1022D00020593130392E35004D35353520463435CD
:1022E0003639205032303434205A3334205931308A
:1022F00032004D35353520463434303820503139B0
:102300003833205A333320593939004D353535208B
:102310004634313035205031383538205A33312069
:10232000593933004D353535204633393033205057
:1023300031373638205A32392E35205938382E3533
:10234000004D35353520463336313720503136345F
:1023500038205A32372E35205938322E35004D3537
:102360003535204633343030205031353533205A1E
:10237000323620593738004D35353520463331391E
:1023800032205031343633205A32342E35205937EA
:10239000332E35004D353535204632393730205013
:1023A00031333732205A323320593639004D3535E2
:1023B00035204632373735205031323830205A32C6
:1023C000312E35205936342E35004D3535352046E1
:1023D00032343935205031313632205A31392E35A8
:1023E000205935382E35004D3535352046323239B5
:1023F00035205031303732205A31382059353400A9
:102400004D3535352046323136322050313031317C
:10241000205A313720593531004D35353520463178
:102420003930302050383838205A31352059343539
:10243000004D353535204631373630205038333071
:10244000205A313420593432004D3535352046314B
:102450003433392050363739205A31312E3520590E
:1024600033342E35004D3535352046313234332066
:1024700050353931205A313020593330004D3535FF
:10248000352046333031332E35205031343332202D
:102490005A33362E3520593130392E35004D3535E9
:1024A000352046323830302E32205031333331200F
:1024B0005A33342059313032004D353535204632CB
:1024C0003731362E36205031323934205A333320CA
:1024D000593939004D35353520463235343520509F
:1024E00031323132205A333120593933004D3535AC
:1024F00035204632343139205031313534205A328A
:10250000392E35205938382E35004D353535204691
:1025100032323439205031303735205A32372E3567
:10252000205938322E35004D35353520463231327E
:1025300034205031303136205A3236205937380065
:102540004D3535352046313939372050393535202C
:102550005A32342E35205937332E35004D35353526
:102560002046313836382050383937205A32332017
:10257000593639004D353535204631373432205003
:10258000383337205A32312E35205936342E350023
:102590004D353535204631353738205037353920DF
:1025A0005A31392E35205935382E35004D353535CF
:1025B00020463134353520503730302E39205A31CD
:1025C0003820593534004D353535204631333732D2
:1025D0002050363631205A313720593531004D35AB
:1025E000353520463132303720503538332E3420BF
:1025F0005A313520593435004D3535352046313185
:1026000032372050353435205A3134205934320095
:102610004D35353520463932312050343437205A43
:1026200031312E35205933342E35004D3535352096
:10263000463739392E352050333838205A3130203A
:10264000593330004D353535204631343331205043
:10265000373031205A33362E3520593130392E3526
:10266000004D3535352046313333312E3520503647
:102670003533205A33342059313032004D35353519
:102680002046313239342050363334205A33332007
:10269000593939004D3535352046313231332050E6
:1026A000353936205A333120593933004D353535D7
:1026B0002046313135342050353636205A32392EC5
:1026C00035205938382E35004D35353520463130D6
:1026D00037352050353238205A32372E3520593888
:1026E000322E35004D3535352046313031362E35D8
:1026F0002050343939205A323620593738004D3578
:10270000353520463935352050343730205A32346B
:102710002E35205937332E35004D35353520463886
:1027200039362E352050343432205A32332059363F
:1027300039004D35353520463833372E3720503463
:102740003133205A32312E35205936342E35004D52
:1027500035353520463736302050333734205A311E
:10276000392E35205935382E35004D353535204632
:102770003730302E392050333435205A31382059F3
:102780003534004D3535352046363631205033321C
:1027900036205A313720593531004D3535352046F0
:1027A0003538332E342050323837205A31352059BD
:1027B0003435004D35353520463534342E312050F2
:1027C000323638205A313420593432004D353535BF
:1027D00020463434362E382050323230205A3131AF
:1027E0002E35205933342E35004D353535204633BE
:1027F00038382E312050313932205A313020593377
:102800003000546964616C20566F6C756D653A20B8
:10281000393530206D4C00496E73703A4578702020
:10282000313A3200496E73703A45787020313A314E
:1028300000546964616C20566F6C756D653A20397F
:102840003030206D4C00496E73703A4578702031FD
:102850003A3200496E73703A45787020313A32004E
:10286000496E73703A45787020313A31005469648A
:10287000616C20566F6C756D653A20383530206D6F
:102880004C00496E73703A45787020313A320049F5
:102890006E73703A45787020313A31005469646142
:1028A0006C20566F6C756D653A20383030206D4C59
:1028B00000496E73703A45787020313A3200496EA3
:1028C00073703A45787020313A3100546964616C14
:1028D00020566F6C756D653A20373530206D4C0091
:1028E000496E73703A45787020313A3200496E7300
:1028F000703A45787020313A3100546964616C2037
:10290000566F6C756D653A20373030206D4C00493C
:102910006E73703A45787020313A320054696461C0
:102920006C20566F6C756D653A2031303030206DFB
:102930004C00496E73703A45787020313A3100543A
:102940006964616C20566F6C756D653A2036353060
:10295000206D4C00496E73703A45787020313A32E0
:1029600000496E73703A45787020313A31005469ED
:1029700064616C20566F6C756D653A20363030207E
:102980006D4C00496E73703A45787020313A3200D0
:10299000496E73703A45787020313A310054696459
:1029A000616C20566F6C756D653A20353530206D41
:1029B0004C00496E73703A45787020313A320049C4
:1029C0006E73703A45787020313A31005469646111
:1029D0006C20566F6C756D653A20353030206D4C2B
:1029E00000496E73703A45787020313A3200496E72
:1029F00073703A45787020313A3100496E73703AFD
:102A000045787020313A3100546964616C20566F0A
:102A10006C756D653A20343530206D4C00496E730D
:102A2000703A45787020313A3200496E73703A45F9
:102A3000787020313A3100546964616C20566F6CB3
:102A4000756D653A20343030206D4C00496E7370DE
:102A50003A45787020313A3200496E73703A4578C1
:102A60007020313A3100546964616C20566F6C7586
:102A70006D653A20333530206D4C00496E73703AE5
:102A800045787020313A3200496E73703A4578705B
:102A900020313A3100546964616C20566F6C756D59
:102AA000653A20333030206D4C00496E73703A45E2
:102AB000787020313A3200496E73703A4578702050
:102AC000313A3100496E73703A45787020313A32AC
:102AD00000546964616C20566F6C756D653A2032E4
:102AE0003530206D4C00496E73703A457870203156
:102AF0003A3200496E73703A45787020313A3100AD
:102B0000496E73703A45787020313A3100546964E7
:102B1000616C20566F6C756D653A20323030206DD7
:102B20004C00546964616C20566F6C756D653A2079
:102B3000393530206D4C00496E73703A45787020FD
:102B4000313A3200496E73703A45787020313A312B
:102B500000496E73703A45787020313A31005469FB
:102B600064616C20566F6C756D653A203930302089
:102B70006D4C00496E73703A45787020313A3200DE
:102B8000496E73703A45787020313A310054696467
:102B9000616C20566F6C756D653A20383530206D4C
:102BA0004C00496E73703A45787020313A320049D2
:102BB0006E73703A45787020313A3200496E737006
:102BC0003A45787020313A3100546964616C20567E
:102BD0006F6C756D653A20383030206D4C00496E51
:102BE00073703A45787020313A3200496E73703A0A
:102BF00045787020313A3100496E73703A457870EB
:102C000020313A3100546964616C20566F6C756DE7
:102C1000653A20373530206D4C00496E73703A4567
:102C2000787020313A3200496E73703A45787020DE
:102C3000313A3100546964616C20566F6C756D6572
:102C40003A20373030206D4C00496E73703A457829
:102C50007020313A3200496E73703A4578702031F5
:102C60003A3100546964616C20566F6C756D653A39
:102C700020363530206D4C00496E73703A457870BF
:102C800020313A3200496E73703A45787020313AFB
:102C90003100546964616C20566F6C756D653A2023
:102CA000363030206D4C00496E73703A4578702094
:102CB000313A3200496E73703A45787020313A31BA
:102CC00000496E73703A45787020313A3200546989
:102CD00064616C20566F6C756D653A203535302017
:102CE0006D4C00496E73703A45787020313A32006D
:102CF000496E73703A45787020313A3100546964F6
:102D0000616C20566F6C756D653A20353030206DE2
:102D10004C00496E73703A45787020313A32004960
:102D20006E73703A45787020313A310054696461AD
:102D30006C20566F6C756D653A20343530206D4CC3
:102D400000496E73703A45787020313A3200496E0E
:102D500073703A45787020313A3100546964616C7F
:102D600020566F6C756D653A20343030206D4C0004
:102D7000496E73703A45787020313A320054696474
:102D8000616C20566F6C756D653A203130303020A3
:102D90006D4C00496E73703A45787020313A3100BD
:102DA000546964616C20566F6C756D653A203335DB
:102DB00030206D4C00496E73703A45787020313A7E
:102DC0003200496E73703A45787020313A310054C0
:102DD0006964616C20566F6C756D653A20333030D4
:102DE000206D4C00496E73703A45787020313A324C
:102DF00000496E73703A45787020313A3100546959
:102E000064616C20566F6C756D653A2032353020E8
:102E10006D4C00496E73703A45787020313A32003B
:102E2000496E73703A45787020313A3100546964C4
:102E3000616C20566F6C756D653A20323030206DB4
:102E40004C00546964616C20566F6C756D653A2056
:102E5000393530206D4C00496E73703A45787020DA
:102E6000313A3200496E73703A45787020313A3108
:102E700000546964616C20566F6C756D653A203939
:102E80003030206D4C00496E73703A4578702031B7
:102E90003A3200496E73703A45787020313A310009
:102EA000546964616C20566F6C756D653A203835D5
:102EB00030206D4C00496E73703A45787020313A7D
:102EC0003200496E73703A45787020313A310049CA
:102ED0006E73703A45787020313A320054696461FB
:102EE0006C20566F6C756D653A20383030206D4C13
:102EF00000496E73703A45787020313A3200496E5D
:102F000073703A45787020313A3100546964616CCD
:102F100020566F6C756D653A20373530206D4C004A
:102F2000496E73703A45787020313A3200496E73B9
:102F3000703A45787020313A3100546964616C20F0
:102F4000566F6C756D653A20373030206D4C0049F6
:102F50006E73703A45787020313A3200496E737062
:102F60003A45787020313A3100546964616C2056DA
:102F70006F6C756D653A20363530206D4C00496EAA
:102F800073703A45787020313A3200546964616C4C
:102F900020566F6C756D653A2031303030206D4CA5
:102FA00000496E73703A45787020313A31005469A7
:102FB00064616C20566F6C756D653A203630302038
:102FC0006D4C00496E73703A45787020313A32008A
:102FD000496E73703A45787020313A310054696413
:102FE000616C20566F6C756D653A20353530206DFB
:102FF0004C00496E73703A45787020313A3200497E
:103000006E73703A45787020313A3100496E7370B2
:103010003A45787020313A3100546964616C205629
:103020006F6C756D653A20353030206D4C00496EFF
:1030300073703A45787020313A3200496E73703AB5
:1030400045787020313A3100546964616C20566FC4
:103050006C756D653A20343530206D4C00496E73C7
:10306000703A45787020313A3200496E73703A45B3
:10307000787020313A3100496E73703A457870208B
:10308000313A3100546964616C20566F6C756D651E
:103090003A20343030206D4C00496E73703A4578D8
:1030A0007020313A3200496E73703A4578702031A1
:1030B0003A3100546964616C20566F6C756D653AE5
:1030C00020333530206D4C00496E73703A4578706E
:1030D00020313A3200496E73703A45787020313AA7
:1030E0003100546964616C20566F6C756D653A20CF
:1030F000333030206D4C00496E73703A4578702043
:10310000313A3200496E73703A45787020313A3165
:1031100000546964616C20566F6C756D653A20329D
:103120003530206D4C00496E73703A45787020310F
:103130003A3200496E73703A45787020313A320065
:10314000496E73703A45787020313A3100546964A1
:10315000616C20566F6C756D653A20323030206D91
:103160004C00496E73703A45787020313A31005402
:103170006964616C20566F6C756D653A2038353026
:10318000206D4C00496E73703A45787020313A32A8
:1031900000496E73703A45787020313A3200496EBA
:1031A00073703A45787020313A3100546964616C2B
:1031B00020566F6C756D653A20383030206D4C00AC
:1031C000496E73703A45787020313A3200496E7317
:1031D000703A45787020313A3100546964616C204E
:1031E000566F6C756D653A20373530206D4C00494F
:1031F0006E73703A45787020313A3200496E7370C0
:103200003A45787020313A3100546964616C205637
:103210006F6C756D653A20373030206D4C00496E0B
:1032200073703A45787020313A3200496E73703AC3
:1032300045787020313A3100546964616C20566FD2
:103240006C756D653A20363530206D4C00496E73D3
:10325000703A45787020313A3200496E73703A45C1
:10326000787020313A3100546964616C20566F6C7B
:10327000756D653A20393030206D4C0054696461B9
:103280006C20566F6C756D653A20363030206D4C71
:1032900000496E73703A45787020313A3200496EB9
:1032A00073703A45787020313A3100546964616C2A
:1032B00020566F6C756D653A20353530206D4C00A9
:1032C000496E73703A45787020313A3200496E7316
:1032D000703A45787020313A3100546964616C204D
:1032E000566F6C756D653A20353030206D4C004955
:1032F0006E73703A45787020313A3200496E7370BF
:103300003A45787020313A3100546964616C205636
:103310006F6C756D653A20343530206D4C00496E08
:1033200073703A45787020313A3200496E73703AC2
:1033300045787020313A3100496E73703A457870A3
:1033400020313A3100546964616C20566F6C756DA0
:10335000653A20343030206D4C00496E73703A4528
:10336000787020313A3200496E73703A4578702097
:10337000313A3100546964616C20566F6C756D652B
:103380003A20333530206D4C00496E73703A4578E1
:103390007020313A3200496E73703A4578702031AE
:1033A0003A3100546964616C20566F6C756D653AF2
:1033B00020333030206D4C00496E73703A45787080
:1033C00020313A3200496E73703A45787020313AB4
:1033D0003100546964616C20566F6C756D653A20DC
:1033E000323530206D4C00496E73703A457870204C
:1033F000313A3200496E73703A45787020313A3173
:1034000000496E73703A45787020313A3200546941
:1034100064616C20566F6C756D653A2032303020D7
:103420006D4C00496E73703A45787020313A320025
:10343000546964616C20566F6C756D653A20373540
:1034400030206D4C00496E73703A45787020313AE7
:103450003100546964616C20566F6C756D653A205B
:10346000373030206D4C00496E73703A45787020CB
:10347000313A3200496E73703A45787020313A31F2
:1034800000546964616C20566F6C756D653A203626
:103490003530206D4C00496E73703A45787020319C
:1034A0003A3200496E73703A45787020313A3100F3
:1034B000546964616C20566F6C756D653A203630C6
:1034C00030206D4C00496E73703A45787020313A67
:1034D0003200496E73703A45787020313A310054A9
:1034E0006964616C20566F6C756D653A20353530B6
:1034F000206D4C00496E73703A45787020313A3235
:1035000000496E73703A45787020313A3100496E47
:1035100073703A45787020313A3100546964616CB7
:1035200020566F6C756D653A20353030206D4C003B
:10353000496E73703A45787020313A3200496E73A3
:10354000703A45787020313A3100546964616C20DA
:10355000566F6C756D653A20343530206D4C0049DE
:103560006E73703A45787020313A3200496E73704C
:103570003A45787020313A3200496E73703A457896
:103580007020313A3100546964616C20566F6C755B
:103590006D653A20343030206D4C00496E73703ABE
:1035A00045787020313A3200496E73703A45787030
:1035B00020313A3100546964616C20566F6C756D2E
:1035C000653A20333530206D4C00496E73703A45B2
:1035D000787020313A3200496E73703A4578702025
:1035E000313A3100546964616C20566F6C756D65B9
:1035F0003A20333030206D4C00496E73703A457874
:103600007020313A3200496E73703A45787020313B
:103610003A3100546964616C20566F6C756D653A7F
:1036200020323530206D4C00496E73703A45787009
:1036300020313A3200496E73703A45787020313A41
:103640003100546964616C20566F6C756D653A2069
:10365000323030206D4C00496E73703A45787020DE
:10366000313A3200496E73703A45787020313A3100
:1036700000546964616C20566F6C756D653A203535
:103680003530206D4C00496E73703A4578702031AA
:103690003A3200496E73703A45787020313A310001
:1036A000546964616C20566F6C756D653A203530D5
:1036B00030206D4C00496E73703A45787020313A75
:1036C0003200496E73703A45787020313A310054B7
:1036D0006964616C20566F6C756D653A20343530C5
:1036E000206D4C00496E73703A45787020313A3243
:1036F00000496E73703A45787020313A3100496E56
:1037000073703A45787020313A3100546964616CC5
:1037100020566F6C756D653A20343030206D4C004A
:10372000496E73703A45787020313A3200496E73B1
:10373000703A45787020313A3100546964616C20E8
:10374000566F6C756D653A20333530206D4C0049ED
:103750006E73703A45787020313A32005469646172
:103760006C20566F6C756D653A20363030206D4C8C
:1037700000496E73703A45787020313A31005469CF
:1037800064616C20566F6C756D653A203330302063
:103790006D4C00496E73703A45787020313A3200B2
:1037A000496E73703A45787020313A31005469643B
:1037B000616C20566F6C756D653A20323530206D26
:1037C0004C00496E73703A45787020313A320031BE
:1037D0003A32204E4F5420415641494C41424C45CB
:1037E00000496E73703A45787020313A310054695F
:1037F00064616C20566F6C756D653A2032303020F4
:103800006D4C00546964616C20566F6C756D653A3F
:1038100020353030206D4C00313A32204E4F54204C
:10382000415641494C41424C4500496E73703A45FE
:10383000787020313A3100496E73703A45787020C3
:10384000313A3100546964616C20566F6C756D6556
:103850003A20343530206D4C00313A32204E4F54EE
:1038600020415641494C41424C4500496E73703AE3
:1038700045787020313A3100546964616C20566F8C
:103880006C756D653A20343030206D4C00496E7394
:10389000703A45787020313A3200496E73703A457B
:1038A000787020313A3100313A32204E4F54204165
:1038B0005641494C41424C4500546964616C205664
:1038C0006F6C756D653A20333530206D4C00496E54
:1038D00073703A45787020313A3200496E73703A0D
:1038E00045787020313A3100546964616C20566F1C
:1038F0006C756D653A20333030206D4C00496E7325
:10390000703A45787020313A3200496E73703A450A
:10391000787020313A3100546964616C20566F6CC4
:10392000756D653A20323530206D4C00496E7370EC
:103930003A45787020313A3200496E73703A4578D2
:103940007020313A3100546964616C20566F6C7597
:103950006D653A20323030206D4C00546964616CE2
:1039600020566F6C756D653A20343530206D4C00F3
:10397000313A32204E4F5420415641494C41424C3D
:103980004500496E73703A45787020313A310049EC
:103990006E73703A45787020313A31005469646131
:1039A0006C20566F6C756D653A20343030206D4C4C
:1039B00000313A32204E4F5420415641494C414249
:1039C0004C4500496E73703A45787020313A3100A9
:1039D000313A32204E4F5420415641494C41424CDD
:1039E0004500546964616C20566F6C756D653A20B2
:1039F000333530206D4C00313A32204E4F54204147
:103A00005641494C41424C4500496E73703A4578E5
:103A10007020313A3100546964616C20566F6C75C6
:103A20006D653A20333030206D4C00313A32204EF3
:103A30004F5420415641494C41424C4500496E7318
:103A4000703A45787020313A3100546964616C20D5
:103A5000566F6C756D653A20323530206D4C0049DB
:103A60006E73703A45787020313A3200496E737047
:103A70003A45787020313A3100546964616C2056BF
:103A80006F6C756D653A20323030206D4C00546992
:103A900064616C20566F6C756D653A20343030204F
:103AA0006D4C00313A32204E4F5420415641494C22
:103AB00041424C4500496E73703A45787020313A66
:103AC0003100546964616C20566F6C756D653A20E5
:103AD000333530206D4C00313A32204E4F54204166
:103AE0005641494C41424C4500496E73703A457805
:103AF0007020313A3100546964616C20566F6C75E6
:103B00006D653A20333030206D4C00313A32204E12
:103B10004F5420415641494C41424C4500313A32C4
:103B2000204E4F5420415641494C41424C4500499A
:103B30006E73703A45787020313A3100546964618F
:103B40006C20566F6C756D653A20323530206D4CA7
:103B500000313A32204E4F5420415641494C4142A7
:103B60004C4500496E73703A45787020313A310007
:103B7000496E73703A45787020313A310054696467
:103B8000616C20566F6C756D653A20323030206D57
:103B90004C00526573702E20526174653A203336A2
:103BA0002042504D00526573702E20526174653A68
:103BB0002033322042504D00526573702E205261E6
:103BC00074653A2032382042504D00526573702E91
:103BD00020526174653A2032342042504D005265C3
:103BE00073702E20526174653A2032302042504D5D
:103BF00000526573702E20526174653A2031362070
:103C000042504D00526573702E20526174653A2007
:103C100031322042504D00526573702E2052617433
:103C2000653A20382042504D00526573702E205264
:103C30006174653A20342042504D0053455420545D
:103C4000562C52522C494520746F2052554E00522A
:103C50006573702E20526174653A203336204250CD
:103C60004D00526573702E20526174653A203332D4
:103C70002042504D00526573702E20526174653A97
:103C80002032382042504D00526573702E20526110
:103C900074653A2032342042504D00526573702EC4
:103CA00020526174653A2032302042504D005265F6
:103CB00073702E20526174653A2031362042504D87
:103CC00000526573702E20526174653A20313220A3
:103CD00042504D00526573702E20526174653A2037
:103CE000382042504D00526573702E205261746529
:103CF0003A20342042504D005345542054562C5203
:103D0000522C494520746F2052554E0052657370F5
:103D10002E20526174653A2033362042504D0052B5
:103D20006573702E20526174653A20333220425000
:103D30004D00526573702E20526174653A203238FE
:103D40002042504D00526573702E20526174653AC6
:103D50002032342042504D00526573702E20526143
:103D600074653A2032302042504D00526573702EF7
:103D700020526174653A2031362042504D00526520
:103D800073702E20526174653A2031322042504DBA
:103D900000526573702E20526174653A20382042BB
:103DA000504D00526573702E20526174653A203474
:103DB0002042504D005345542054562C52522C4909
:103DC0004520746F2052554E00526573702E20525C
:103DD0006174653A2033362042504D00526573704D
:103DE0002E20526174653A2033322042504D0052E9
:103DF0006573702E20526174653A2032382042502B
:103E00004D00526573702E20526174653A20323431
:103E10002042504D00526573702E20526174653AF5
:103E20002032302042504D00526573702E20526176
:103E300074653A2031362042504D00526573702E21
:103E400020526174653A2031322042504D00526553
:103E500073702E20526174653A20382042504D0014
:103E6000526573702E20526174653A20342042509E
:103E70004D005345542054562C52522C4945207421
:103E80006F2052554E00526573702E20526174653A
:103E90003A2033362042504D00526573702E205226
:103EA0006174653A2033322042504D005265737080
:103EB0002E20526174653A2032382042504D005213
:103EC0006573702E20526174653A2032342042505E
:103ED0004D00526573702E20526174653A20323065
:103EE0002042504D00526573702E20526174653A25
:103EF0002031362042504D00526573702E205261A1
:103F000074653A2031322042504D00526573702E54
:103F100020526174653A20382042504D005265733A
:103F2000702E20526174653A20342042504D005367
:103F300045542054562C52522C494520746F20521F
:103F4000554E00526573702E20526174653A2033CD
:103F5000322042504D00526573702E2052617465BC
:103F60003A2032382042504D00526573702E205254
:103F70006174653A2032342042504D0052657370AE
:103F80002E20526174653A2032302042504D00524A
:103F90006573702E20526174653A2031362042508C
:103FA0004D00526573702E20526174653A20313293
:103FB0002042504D00526573702E20526174653A54
:103FC00020382042504D00526573702E205261748B
:103FD000653A20342042504D005345542054562C0D
:103FE00052522C494520746F2052554E0052657331
:103FF000702E20526174653A2032382042504D00B4
:10400000526573702E20526174653A20323420421A
:10401000504D00526573702E20526174653A203203
:10402000302042504D00526573702E2052617465ED
:104030003A2031362042504D00526573702E205286
:104040006174653A2031322042504D0052657370E0
:104050002E20526174653A20382042504D0052653E
:1040600073702E20526174653A20342042504D0006
:10407000526573702E20526174653A2032342042AA
:10408000504D00526573702E20526174653A203293
:10409000302042504D00526573702E20526174657D
:1040A0003A2031362042504D00526573702E205216
:1040B0006174653A2031322042504D005265737070
:1040C0002E20526174653A20382042504D005265CE
:1040D00073702E20526174653A20342042504D0096
:1040E0005345542054562C52522C494520746F206D
:1040F00052554E00526573702E20526174653A20FD
:1041000032342042504D00526573702E205261743B
:10411000653A2032302042504D00526573702E2097
:10412000526174653A2031362042504D0052657319
:10413000702E20526174653A2031322042504D0079
:10414000526573702E20526174653A2038204250B7
:104150004D00526573702E20526174653A203420F0
:1041600042504D005345542054562C52522C494530
:1041700020746F2052554E00526573702E2052618C
:1041800074653A2032302042504D00526573702ED3
:1041900020526174653A2031362042504D005265FC
:1041A00073702E20526174653A2031322042504D96
:1041B00000526573702E20526174653A2038204297
:1041C000504D00526573702E20526174653A203450
:1041D0002042504D005345542054562C52522C49E5
:1041E0004520746F2052554E00526573702E205238
:1041F0006174653A2032302042504D005265737030
:104200002E20526174653A2031362042504D0052C2
:104210006573702E20526174653A2031322042500D
:104220004D00526573702E20526174653A2038201B
:1042300042504D00526573702E20526174653A20D1
:10424000342042504D005345542054562C52522C89
:10425000494520746F2052554E00526573702E20D0
:10426000526174653A2032302042504D00526573DD
:10427000702E20526174653A2031362042504D0034
:10428000526573702E20526174653A20313220429B
:10429000504D00526573702E20526174653A20387B
:1042A0002042504D00526573702E20526174653A61
:1042B00020342042504D005345542054562C525225
:1042C0002C494520746F2052554E00526573702E54
:1042D00020526174653A2031362042504D005265BB
:1042E00073702E20526174653A2031322042504D55
:1042F00000526573702E20526174653A2038204256
:10430000504D00526573702E20526174653A20340E
:104310002042504D005345542054562C52522C49A3
:104320004520746F2052554E00526573702E2052F6
:104330006174653A2031362042504D0052657370E9
:104340002E20526174653A2031322042504D005285
:104350006573702E20526174653A20382042504DAA
:1043600000526573702E20526174653A20342042E9
:10437000504D005345542054562C52522C49452040
:10438000746F2052554E00526573702E2052617426
:10439000653A2031362042504D00526573702E2010
:1043A000526174653A2031322042504D005265739B
:1043B000702E20526174653A20382042504D0052D0
:1043C0006573702E20526174653A20342042504D3E
:1043D000005345542054562C52522C494520746F9A
:1043E0002052554E00526573702E20526174653A0A
:1043F0002031322042504D00526573702E205261A0
:1044000074653A20382042504D00526573702E205A
:10441000526174653A20342042504D005345542077
:1044200054562C52522C494520746F2052554E0040
:10443000526573702E20526174653A2031322042E9
:10444000504D00526573702E20526174653A2038C9
:104450002042504D00526573702E20526174653AAF
:1044600020342042504D005345542054562C525273
:104470002C494520746F2052554E00546964616C7C
:1044800020566F6C756D653A2031303030206D4CA0
:1044900000546964616C20566F6C756D653A203903
:1044A0003530206D4C00546964616C20566F6C751A
:1044B0006D653A20393030206D4C00546964616C70
:1044C00020566F6C756D653A20383530206D4C0084
:1044D000546964616C20566F6C756D653A20383094
:1044E00030206D4C00546964616C20566F6C756DA2
:1044F000653A20373530206D4C00546964616C207A
:10450000566F6C756D653A20373030206D4C005415
:104510006964616C20566F6C756D653A2036353074
:10452000206D4C00546964616C20566F6C756D652C
:104530003A20363030206D4C00546964616C20564E
:104540006F6C756D653A20353530206D4C005469BF
:1045500064616C20566F6C756D653A203530302083
:104560006D4C00546964616C20566F6C756D653AD2
:1045700020343530206D4C00546964616C20566FD6
:104580006C756D653A20343030206D4C0054696490
:10459000616C20566F6C756D653A20333530206D37
:1045A0004C00546964616C20566F6C756D653A20DF
:1045B000333030206D4C00546964616C20566F6C50
:1045C000756D653A20323530206D4C005469646158
:1045D0006C20566F6C756D653A20323030206D4C12
:1045E0000056656E74696C61746F7200434F4D4D77
:1045F000554E49434154494F4E0044525952554E2D
:10460000004552524F525300494E464F00454348D1
:104610004F00656E7175657565696E672022005380
:10462000544F505045442E20005072696E7465728C
:104630002073746F707065642064756520746F20DA
:104640006572726F72732E204669782074686520D7
:104650006572726F7220616E6420757365204D39CA
:10466000393920746F20726573746172742E20283A
:1046700054656D706572617475726520697320721E
:10468000657365742E2053657420697420616674A7
:1046900065722072657374617274696E67290A00AD
:1046A0004E6F20436865636B73756D20776974681E
:1046B000206C696E65206E756D6265722C204C6190
:1046C0007374204C696E653A20004E6F2043686514
:1046D000636B73756D2077697468206C696E6520F3
:1046E0006E756D6265722C204C617374204C696E1E
:1046F000653A2000636865636B73756D206D69733F
:104700006D617463682C204C617374204C696E6514
:104710003A20004C696E65204E756D6265722069A5
:1047200073206E6F74204C617374204C696E652029
:104730004E756D6265722B312C204C617374204C68
:10474000696E653A20004D313130004D33310053F0
:10475000442072656164206572726F720A00446F52
:104760006E65207072696E74696E672066696C652B
:104770000A0020496E76616C6964206578747275F0
:1047800064657220000000000000000000000000CE
:104790000000009643000016430000484220573AAC
:1047A000004520436F6F6C696E672E2E2E004520EA
:1047B00048656174696E672E2E2E0020573A0042BC
:1047C000656420636F6F6C696E672E2E2E004265E4
:1047D000642068656174696E672E2E2E00205A3A37
:1047E0000020593A0020436F756E7420583A00201B
:1047F000453A00205A3A0020593A00583A003A0007
:104800004361703A00205A00205900580020204D82
:1048100061783A2000205A00205900580020204D8D
:10482000696E3A20004F6E20004F666600536F6637
:104830007420656E6473746F70733A20002364652E
:1048400066696E652044454641554C545F4B642073
:104850000023646566696E652044454641554C54A5
:104860005F4B69200023646566696E652044454698
:1048700041554C545F4B70200050494420417574A1
:104880006F74756E652066696E6973686564212052
:1048900050757420746865206C617374204B702CA3
:1048A000204B6920616E64204B6420636F6E7374CB
:1048B000616E74732066726F6D2062656C6F772015
:1048C000696E746F20436F6E666967757261746993
:1048D0006F6E2E680A00504944204175746F7475DC
:1048E0006E65206661696C6564212074696D656F11
:1048F00075740A00453120544845524D414C2052B0
:10490000554E4157415900546865726D616C205293
:10491000756E617761790045312048656174696E13
:1049200067206661696C65640048656174696E67DB
:10493000206661696C656400504944204175746F5C
:1049400074756E65206661696C6564212054656DBF
:10495000706572617475726520746F6F2068696725
:10496000680A00204B643A2000204B693A2000205E
:104970004B703A20000A20436C61737369632050C6
:104980004944200A002054753A2000204B753A20F3
:1049900000206D61783A2000206D696E3A20002079
:1049A000643A200020626961733A20005049442033
:1049B0004175746F74756E652073746172740A004A
:1049C000504944204175746F74756E652066616945
:1049D0006C6564212054656D7065726174757265D3
:1049E00020746F6F20686967680A0050494420414D
:1049F00075746F74756E65206661696C65642120DD
:104A0000426164206578747275646572206E756D9C
:104A10006265720A004445434F4D5052455353441A
:104A20004F4E450A000A0A00494520526174696FD9
:104A30003A202031203A20000A0A0042504D3A2004
:104A4000000A0A004445434F4D50524553532054E9
:104A5000494D453A2000434F4D5052455353444F22
:104A60004E450A000A0A00434F4D50524553532009
:104A700054494D453A2000496E7365727420666949
:104A80006C616D656E7420616E6420707265737305
:104A900020627574746F6E20286F72204D3130382B
:104AA000290A00507265737320627574746F6E20EA
:104AB000286F72204D3130382920746F206865616D
:104AC00074206E6F7A7A6C650A00496E7365727431
:104AD0002066696C616D656E7420616E6420707211
:104AE00065737320627574746F6E20286F72204D29
:104AF000313038290A0047322F4733206261642061
:104B0000706172616D65746572730A00536C6565DE
:104B1000702E2E2E00436C69636B20746F207265BB
:104B200073756D652E2E2E004E6F206D6F76652E7F
:104B300000456E642066696C65206C6973740A00B8
:104B4000426567696E2066696C65206C6973740ADA
:104B5000004D31323500286E6F2066696C65290082
:104B600043757272656E742066696C653A200053F5
:104B700044207072696E74696E6720627974652072
:104B8000004E6F74205344207072696E74696E67B2
:104B90000A0044656C6574696F6E206661696C65B6
:104BA000642C2046696C653A200046696C65206477
:104BB000656C657465643A002569730025696D202C
:104BC000256973002569682025696D2025697300B2
:104BD000256964202569682025696D202569730091
:104BE00025697920256964202569682025696D205B
:104BF000256973005072696E742074696D653A207E
:104C0000006F6666000D4608460146FA45EC4544CD
:104C1000454255473A004D3131332053006F6B0008
:104C20003344504156202D204E4F4E2D48554D4176
:104C30004E2054455354494E47204F4E4C59204F17
:104C400066662E002C20002C2000544845524D4111
:104C50004C5F50524F54454354494F4E00415554B8
:104C60004F5245504F52545F53445F535441545533
:104C70005300454D455247454E43595F50415253AD
:104C8000455200434153455F4C494748545F4252A7
:104C9000494748544E45535300544F47474C455F8E
:104CA0004C494748545300534F4654574152455F6F
:104CB000504F574552004255494C445F504552436E
:104CC000454E54004C4556454C494E475F4441546F
:104CD00041005A5F50524F4245004155544F4C4598
:104CE00056454C005052494E545F4A4F4200505274
:104CF0004F4752455353004155544F5245504F5220
:104D0000545F54454D5000564F4C554D45545249F3
:104D10004300454550524F4D0053455249414C5F69
:104D2000584F4E5F584F4646004649524D574152E4
:104D3000455F4E414D453A4D61726C696E20544855
:104D400033442055312E52322E423320534F555288
:104D500043455F434F44455F55524C3A2050524FB4
:104D6000544F434F4C5F56455253494F4E3A312EA4
:104D700030204D414348494E455F545950453A33E0
:104D800044504156202D204E4F4E2D48554D414EFA
:104D90002054455354494E47204F4E4C59204558B6
:104DA0005452554445525F434F554E543A31205565
:104DB0005549443A0A002F2F20004D3134352053F5
:104DC0003C696E6465783E206F7574206F66207252
:104DD000616E67652028302D31290A00205400209B
:104DE0005200416363656C65726174696F6E3A204D
:104DF00050004F666673657473206170706C6965EE
:104E000064004572723A20546F6F2066617221000F
:104E1000546F6F206661722066726F6D20726566D6
:104E20006572656E636520706F696E740A00204656
:104E30006C6F773A2000000136372603FFFFFF35FD
:104E40003C3D380EFFFFFF311A1C1812FFFFFFFF19
:104E50002AFF0C0809FFFFFF24221EFFFF2C084435
:104E60000AFF432E303E2850726F74656374656488
:104E70002050696E0A00496E76616C69642065781D
:104E80007472756465720A0020643A0020693A0001
:104E900020703A0043290A0061626C656420286D25
:104EA000696E2074656D702000436F6C64206578B6
:104EB0007472756465732061726520004E6F2063A3
:104EC000617365206C696768740A00454550524FEC
:104ED0004D204F4B0A004163746976652045787414
:104EE00072756465723A2000496E76616C6964205F
:104EF00065787472756465720A00526573656E64D4
:104F00003A20006F6B0020746F6F206C6F6E67200B
:104F1000657874727573696F6E2070726576656EF0
:104F20007465640A0020636F6C6420657874727520
:104F300073696F6E2070726576656E7465640A00C1
:104F4000627573793A2070617573656420666F725B
:104F500020696E7075740A00627573793A20706109
:104F60007573656420666F7220757365720A0062DE
:104F70007573793A2070726F63657373696E670A2F
:104F8000004B494C4C45442E20004B494C4C20636F
:104F90006175736564206279204B494C4C206275C1
:104FA00074746F6E2F70696E0A004B494C4C454407
:104FB0002E20004B494C4C20636175736564206260
:104FC0007920746F6F206D75636820696E616374FA
:104FD0006976652074696D65202D20637572726530
:104FE0006E7420636F6D6D616E643A20004D3630D3
:104FF0003000506C65617365207265736574005094
:1050000052494E5445522048414C54454400507238
:10501000696E7465722068616C7465642E206B69BA
:105020006C6C28292063616C6C6564210A000000A7
:10503000000000000000000000000000204200000E
:10504000204200000041000000005761726E696E4E
:10505000673A20486F6D696E672042756D70204415
:10506000697669736F72203C20310A0002020400E5
:1050700000A0400000A04000000040000096430057
:1050800000164300004842FFFFFF4D3630303A2003
:10509000546F6F20636F6C6400486F74656E64209A
:1050A000746F6F20636F6C640A007C3C3E5E2B3D26
:1050B0003F2F5B5D3B2C2A225C004572726F722091
:1050C00077726974696E6720746F20454550524F3E
:1050D0004D210A004732382059205A004D353030D2
:1050E000004D353032004D31370053544F5020566B
:1050F000656E74696C61746F720053455420545628
:105100002C52522C494520746F2052554E00494E66
:10511000495449414C495A452056656E74696C6141
:10512000746F72004D61696E0043616E6E6F742022
:10513000656E746572207375626469723A2000024C
:105140002E2E000152656672657368004D61696EAE
:10515000005052494E542050415553454400554E3D
:105160004C4F41442046494C414D454E54004C4F14
:1051700041442046494C414D454E5400507572679C
:1051800065206D6F726500436F6E74696E756500A2
:10519000524553554D45204F5054494F4E533A00B8
:1051A00020204E6F7A7A6C653A20006368616E67E2
:1051B00065006F66207468652066696C616D656E58
:1051C00074005761697420666F7220737461727421
:1051D0000020204E6F7A7A6C653A200020006669C4
:1051E0006C616D656E7420756E6C6F6164005761E3
:1051F000697420666F720020204E6F7A7A6C653A6F
:1052000020002000506C6561736520776169742E01
:105210002E2E0048656174696E67206E6F7A7A6C15
:10522000650020204E6F7A7A6C653A200020006875
:10523000656174206E6F7A7A6C652E0050726573AA
:105240007320627574746F6E20746F0020204E6F2F
:105250007A7A6C653A2000746F20636F6E74696EA1
:1052600075652E2E2E00616E64207072657373203A
:10527000627574746F6E00496E736572742066692E
:105280006C616D656E740020204E6F7A7A6C653AA1
:105290002000200066696C616D656E74206C6F6122
:1052A00064005761697420666F720020204E6F7A27
:1052B0007A6C653A2000200066696C616D656E74D9
:1052C000207075726765005761697420666F72009F
:1052D000746F20726573756D65005761697420661F
:1052E0006F72207072696E74000000210024002724
:1052F000002A002D003000330001010000040107E6
:10530000010A0100002200250028002B002E003198
:1053100000340002010000050108010B010000201B
:10532000002300260029002C002F0032000001007D
:105330000003010601090105050505070508080820
:1053400008020202020A0A08080404040401010116
:10535000010101010103030303030303030407071E
:10536000070C0C0C0C0C0C0C0C02020202060606BC
:1053700006060606060B0B0B0B0B0B0B0B010210A4
:10538000202008081020401020408002010201085F
:10539000040201010204081020408080402010080F
:1053A0000402018004020180402010080402010868
:1053B00004020101020408102040800102040810C8
:1053C00020408000000A0B02090C0D0E08070304A0
:1053D00001000000000000000000000000000000CC
:1053E00000000000000000000000000000000012AB
:1053F000111000000000000000000000000000008C
:10540000000000000000000000022020506C616ECF
:105410006E657242756666657242797465733A208C
:10542000002046726565204D656D6F72793A2000E7
:10543000436F6D70696C65643A2041756720313047
:1054400020323032300A00207C20417574686F723F
:105450003A202854483344290A0000204C617374D0
:1054600020557064617465643A20005448334420C8
:1054700055312E52322E42330A004D61726C696EE4
:105480000020536F6674776172652052657365748E
:105490000A00205761746368646F67205265736502
:1054A000740A002042726F776E206F757420526507
:1054B0007365740A002045787465726E616C2052C1
:1054C000657365740A00506F77657255700A0073D2
:1054D000746172740A006175746F25692E670065C6
:1054E00072726F722077726974696E6720746F20B0
:1054F00066696C650A00456E6473746F707320256D
:105500006320256320256320256300205A3A00206C
:10551000593A0020583A00656E6473746F707320B6
:105520006869743A2000446F6E6520736176696E15
:10553000672066696C652E0A004D3239004D3234A1
:10554000004D323320257300556E6B6E6F776E20E1
:10555000636F6D6D616E643A202200496E736572EF
:10556000742066696C616D656E7420616E64207074
:105570007265737320627574746F6E20286F722069
:105580004D313038290A00486F74656E6420746F9D
:105590006F20636F6C640A0053442063617264205F
:1055A0006F6B0A006F70656E526F6F742066616971
:1055B0006C65640A00766F6C756D652E696E697432
:1055C000206661696C65640A00534420696E6974E1
:1055D000206661696C0A00486F6D6520257325732C
:1055E0002573206669727374002066697273740A89
:1055F000005A0059005800486F6D65200020746FF4
:105600006F206C6F6E6720657874727573696F6E4A
:105610002070726576656E7465640A0020636F6C35
:105620006420657874727573696F6E207072657628
:10563000656E7465640A0057726974696E672074D8
:105640006F2066696C653A20006F70656E20666138
:10565000696C65642C2046696C653A20006F706542
:105660006E206661696C65642C2046696C653A2021
:105670000046696C652073656C65637465640A0037
:105680002053697A653A200046696C65206F706521
:105690006E65643A20002066696C653A2000646F8C
:1056A000696E67006672657368004E6F772000450B
:1056B0004E4420535542524F5554494E450A0022FC
:1056C00020706F73002220706172656E743A220040
:1056D000535542524F5554494E452043414C4C205E
:1056E0007461726765743A22004B494C4C45442EF4
:1056F0002000747279696E6720746F2063616C6C2E
:10570000207375622D67636F64652066696C6573CD
:10571000207769746820746F6F206D616E79206CDA
:105720006576656C732E204D4158206C6576656CEE
:105730002069733A004572726F723A006F70656E3D
:10574000206661696C65642C2046696C653A2000AE
:1057500043616E6E6F74206F70656E207375626446
:10576000697220006563686F3A0000060900FE0751
:1057700001920321207FFF07FF07FF0000000600C2
:1057800000010707060200808080808000800302FD
:1057900002060105A0A00507070600005050F850BA
:1057A000F850500507070600002078A07028F02068
:1057B000050707060000C0C8102040981805070715
:1057C0000600006090A040A8906802030306010450
:1057D000C0408003070706010020408080804020F1
:1057E00003070706010080402020204080050505B2
:1057F00006000120A870A82005050506000120204C
:10580000F820200203030602FFC0408005010106C4
:105810000003F8020202060200C0C00505050600EA
:10582000010810204080050707060000708888885E
:1058300088887003070706010040C040404040E0F0
:10584000050707060000708808708080F8050707C4
:10585000060000F81020100808F0050707060000F1
:1058600010305090F81010050707060000F880F07F
:1058700008088870050707060000708080F0888897
:1058800070050707060000F80810202020200507F3
:105890000706000070888870888870050707060072
:1058A0000070888878080870020505060200C0C0EC
:1058B00000C0C00206060602FFC0C000C04080044F
:1058C0000707060000102040804020100503030653
:1058D0000002F800F80407070601008040201020AD
:1058E000408005070706000070880810200020058A
:1058F000070706000070880868A8A8700507070653
:105900000000708888F8888888050707060000F07E
:105910008888F08888F00507070600007088808076
:10592000808870050707060000F08888888888F05E
:10593000050707060000F88080F08080F80507075B
:10594000060000F88080F0808080050707060000D0
:10595000708880B8888870050707060000888888E6
:10596000F888888801070706020080808080808090
:10597000800507070600003810101010906005071A
:10598000070600008890A0C0A090880507070600C1
:1059900000808080808080F805070706000088D896
:1059A000A8888888880507070600008888C8A898FE
:1059B0008888050707060000708888888888700531
:1059C0000707060000F08888F0808080050707063A
:1059D000000070888888A89068050707060000F016
:1059E0008888F0A0908805070706000078808070FE
:1059F0000808F0050707060000F8202020202020D6
:105A000005070706000088888888888870050707CA
:105A1000060000888888888850200507070600004F
:105A20008888888888A8500507070600008888505D
:105A300020508888050707060000888888502020A5
:105A400020050707060000F80810204080F803072B
:105A500007060100E08080808080E00505050600E3
:105A6000018040201008030707060100E0202020E5
:105A70002020E005030306000420508805010106EC
:105A80000000F80202020602058040050505060036
:105A90000070087888780507070600008080B0C885
:105AA0008888F0050505060000708080887005076D
:105AB000070600000808689888887805050506002C
:105AC000007088F880700507070600003048E04045
:105AD0004040400506060600FF708888780870057B
